:020000040800F2
:100000000020002079220008C50C0008C70C000859
:1000100000000000000000000000000000000000E0
:10002000000000000000000000000000C90C0008F3
:100030000000000000000000CB0C0008CD0C000800
:10004000C9220008C9220008C9220008C9220008E4
:10005000C922000829080008C9220008C92200088E
:10006000C9220008C9220008C9220008C9220008C4
:1000700095090008C9220008C9220008C922000801
:10008000C92200088D08000800000000C9220008ED
:10009000C9220008D5080008C9220008C9220008A2
:1000A000C9220008C9220008C9220008C922000884
:1000B000C922000800000000C9220008000000005A
:1000C00010B5064C2378002B07D1054B002B02D02E
:1000D000044800E000BF0123237010BD640000202D
:1000E00000000000442C0008044B10B5002B03D086
:1000F0000349044800E000BF10BDC04600000000F6
:1001000068000020442C000803B4714649084000F0
:100110004900095E49008E4403BC70470022430831
:100120008B4274D303098B425FD3030A8B4244D3BF
:10013000030B8B4228D3030C8B420DD3FF22090201
:1001400012BA030C8B4202D31212090265D0030BC0
:100150008B4219D300E0090AC30B8B4201D3CB03B6
:10016000C01A5241830B8B4201D38B03C01A5241F8
:10017000430B8B4201D34B03C01A5241030B8B42FA
:1001800001D30B03C01A5241C30A8B4201D3CB02E5
:10019000C01A5241830A8B4201D38B02C01A5241CA
:1001A000430A8B4201D34B02C01A5241030A8B42CD
:1001B00001D30B02C01A5241CDD2C3098B4201D3E5
:1001C000CB01C01A524183098B4201D38B01C01A63
:1001D000524143098B4201D34B01C01A52410309DA
:1001E0008B4201D30B01C01A5241C3088B4201D389
:1001F000CB00C01A524183088B4201D38B00C01A36
:10020000524143088B4201D34B00C01A5241411A5C
:1002100000D20146524110467047FFE701B5002069
:1002200000F006F802BDC0460029F7D076E7704717
:100230007047C046204842698023DB021343436174
:100240001E4B1968802212050A431A601968802221
:1002500092050A431A601968802212060A431A603E
:100260001968802252040A431A6099698022520157
:1002700011439961C3698021C9010B43C361104BCC
:10028000186801431960196818200143196019683A
:1002900014380143196059680A435A605A68024386
:1002A0005A605968E022D2000A435A601A68402115
:1002B0000A431A607047C04600100240000400481C
:1002C0000038004082B0002301934300181804E076
:1002D000C046C046019B01330193019B8342F7D383
:1002E00002B0704770B505000C00274A9169802361
:1002F0005B050B4393610120FFF7E4FF234B0622CC
:100300001A70234B9B68DB07FBD5214BDB681E4E25
:10031000B26980235B011343B3611E48FFF7D2FF2C
:10032000B26980235B051343B3610120FFF7CAFF65
:10033000164B02221A70164B9B68DB07FBD5144B39
:10034000DB682B0A114A1370114B9B68DB07FBD546
:100350000F4BDB680D4B1D700D4B9B68DB07FBD50E
:100360000B4BDB68094B1C70094B9B68DB07FBD50B
:10037000074BDB68044A916980235B010B4393615F
:100380000448FFF79FFF70BD000400480C38004090
:10039000003800408813000010B504001B4A916922
:1003A00080235B050B4393610120FFF78BFF184B04
:1003B00003221A70174B9B68DB07FBD5154BDB68D4
:1003C000230A134A1370134B9B68DB07FBD5114BB1
:1003D000DB680F4B1C700F4B9B68DB07FBD50D4B8D
:1003E000DB680B4B42221A700A4B9B68DB07FBD57C
:1003F000084BDC68E4B2054A916980235B010B433A
:1004000093610548FFF75EFF200010BD000400481F
:100410000C3800400038004088130000F0B5C64694
:1004200000B58CB00AAD08220021280001F082FF3F
:100430001822002104A801F07DFF274B5A69802172
:10044000C9030A435A615A690A400392039A5A69D6
:10045000802189020A435A615A690A400292029A2B
:100460005A698021C9020A435A615B690B400193B2
:10047000019B1A4F80239846BB62194A93680F214B
:100480008B4393609022D205D3680C398B430124AF
:100490002343D36013688B4313600A942C710026A6
:1004A0006E71AC71280000F0BDFC434604930594C6
:1004B00006960796089604A9380000F00CFC002266
:1004C0000021052001F0A8F8052001F0A9F80CB0E2
:1004D00080BCB846F0BDC046001002400004004891
:1004E0000000014082B0430018180023019304E08B
:1004F000C046C046019B01330193019B8342F7D361
:1005000002B0704770B51420FFF7ECFF0A4CA369E6
:1005100080252D022B43A3611420FFF7E3FFA2697E
:1005200080231B061343A3611420FFF7DBFFA3699D
:100530001D43A56170BDC0460008004810B5040009
:10054000454A91698023DB010B43936143B2002B41
:1005500046DB9022D205916980231B060B439361F1
:10056000630645D59022D205916980235B010B4338
:100570009361A30644D5394A916980239B000B43BC
:100580009361E30643D5354A916980235B000B43B1
:100590009361FFF7B7FF230740D59022D2059169F9
:1005A00080231B020B43936163073FD59022D20542
:1005B000916980235B010B439361A3073ED5274AD2
:1005C000916980239B000B439361E4073DD5234A47
:1005D000916980235B000B439361FFF793FF10BD8C
:1005E0009022D205916980231B020B439361B7E7E8
:1005F0009022D205916980235B050B439361B8E794
:10060000164A916980239B040B439361B9E7134A0F
:10061000916980235B040B439361BAE79022D20572
:10062000916980231B060B439361BDE79022D2059D
:10063000916980235B050B439361BEE7074A91698B
:1006400080239B040B439361BFE7044A9169802395
:100650005B040B439361C0E70008004800040048B6
:1006600070B50500002403E0FFF768FF0134E4B231
:10067000285D0028F8D170BD10B50400474A916983
:100680008023DB050B43936143B2002B49DB9022AF
:10069000D205916980231B060B439361630648D5FD
:1006A0009022D205916980235B010B439361A306DD
:1006B00047D53B4A916980239B000B439361E30636
:1006C00046D5374A916980235B000B439361FFF75E
:1006D00019FF230743D59022D205916980231B027D
:1006E0000B439361630742D59022D2059169802321
:1006F0005B010B439361A30741D5294A916980238C
:100700009B000B439361E40740D5254A9169802300
:100710005B000B439361FFF7F5FE2248FFF7E2FE13
:1007200010BD9022D205916980231B020B43936177
:10073000B4E79022D205916980235B050B43936156
:10074000B5E7174A916980239B040B439361B6E791
:10075000134A916980235B040B439361B7E79022AE
:10076000D205916980231B060B439361BAE790225F
:10077000D205916980235B050B439361BBE7084A6F
:10078000916980239B040B439361BCE7044A916900
:1007900080235B040B439361BDE7C046000800481B
:1007A00000040048B80B000010B51B4B59698022AB
:1007B00092020A435A6159698022D2020A435A615D
:1007C0005969802212030A435A619022D2051168A6
:1007D0008223DB050B431360104A1168A023DB0260
:1007E0000B4313600E4A1168A023DB050B43136013
:1007F0000C48FFF777FE3320FFF73EFF3220FFF76C
:100800003BFF0C20FFF738FF2820FFF735FF0120C2
:10081000FFF732FF10BDC046001002400004004840
:10082000000800483075000010B500F0F5FA124BD2
:100830001B68C31A952B0FD90F4B18600F4B1B78F1
:10084000002B0DD10E4B19680E4A8A620E4ACA62FD
:10085000DA600A4B01221A70012000F0BFFF10BDC0
:10086000074B19689022FF328A62074ACA62DA602F
:10087000024B00221A70EFE7840000208000002065
:10088000D80000201F0300000F27000010B5044807
:1008900001F0E2F88021034800F096FF10BDC04649
:1008A000D80000200004004810B504000748FFF7F6
:1008B00019FE0120FFF7E0FE0548FFF7D1FEC0203A
:1008C000FFF7DAFE2000FFF7CBFE10BDB80B0000EB
:1008D0005C2C000810B586B0184801F0BDF8184B24
:1008E0001888FFF759FD0400164A0300142101A8D7
:1008F00001F0ECFC144B154A12789B5CA34213D117
:10090000124A13780133DBB213700D490A880132A1
:100910000A80052B03D90D4B00221A700A8001A80A
:10092000FFF7C2FF06B010BD01AA094B11CB11C2DF
:1009300011001A880A809B788B70E1E790000020F4
:100940008A0000206C2C0008000000208800002095
:10095000702C000870B5084C200000F053FC642196
:10096000200000F0A1FC200000F002FD05002000A6
:1009700000F078FC280070BD6801002010B5034B22
:1009800058430349FFF7CAFB10BDC0467FBB0000B8
:10099000FF0F000010B5024800F0F0FC10BDC0468B
:1009A0006801002072B6FEE700B585B00C22002178
:1009B00001A801F0BFFC2148214B036000234360E4
:1009C0008360C360012202610421416103764376A2
:1009D0008376C376C221FF31C16103629E39FF393C
:1009E0004354826200F04CFB002822D1062301937D
:1009F00080235B01029380235B0503930F4801A9C9
:100A000000F024FD002816D10D4A916880231B06B2
:100A10000B4393600A4B9B68002BFBDB084A9368EF
:100A200001210B439360064B1B68DB07FBD505B028
:100A300000BDFFF7B7FFFFF7B5FFC0466801002014
:100A40000024014000B58FB0102200210AA801F057
:100A500071FC0822002108A801F06CFC1C22002176
:100A600001A801F067FC2048204B0360002343608D
:100A700083601F4AC2600361836101F0EDF80028C2
:100A800028D180235B010A9317480AA901F002FAD2
:100A9000002821D1144801F00BF900281ED10023B1
:100AA00008930993104808A901F004FB002817D106
:100AB0006023019300230293039305930A480822BD
:100AC00001A901F063F900280CD1074801F0A6FB49
:100AD0000FB000BDFFF766FFFFF764FFFFF762FF8F
:100AE000FFF760FFFFF75EFF2001002000040040D9
:100AF0007FBB000010B50C480C4B03600C4B4360EF
:100B0000002383600B4AC2600361436180338361C9
:100B100001F0A2F8002804D1074B802292031A604A
:100B200010BDFFF73FFFC046900000200044014089
:100B30003F1F0000E703000000E100E000B583B0C4
:100B400008220021684601F0F5FB1248124B0360B1
:100B5000124B436000238360F423FF33C360743B74
:100B6000FF3B836101F078F800280ED10023009349
:100B700001930848694601F09DFA002807D1084B07
:100B8000802292021A6003B000BDFFF70BFFFFF74F
:100B900009FFC046D8000020001000403F1F0000A1
:100BA00000E100E010B5244A136801218B43136073
:100BB000214B1B68DB07FBD4204A136801210B4340
:100BC00013601E4B1B689B07FBD51C4A1368F8215A
:100BD0008B4378390B431360536B7F390B4353635B
:100BE000164B5B6B9B07FBD5144B5A6BF8218A4362
:100BF00078390A435A635A6870318A435A605A688E
:100C00000F490A405A605A6803218A435A600B4BC5
:100C10005B680C221A42FAD10A4801F027FB032034
:100C200000F0B6F8002805D1044A536B04218B4329
:100C3000536310BDFFF7B6FE0020024000100240D3
:100C4000FFF8FFFF00127A0070B500F0C9F8FFF757
:100C5000A9FFFFF7EFFAFFF7E1FBFFF7A5FEFFF7AC
:100C6000F1FEFFF747FFFFF769FFFFF79DFD104813
:100C700000F0B6FE0F4800F0B3FE0F48082101F067
:100C80009BF900240AE00D4B195D0D4D2888FFF7F4
:100C900029FB2B8801332B800134E4B2052CF2D9D7
:100CA000FFF758FEFFF76AFE034B1B68D863F7E7B0
:100CB000D80000209000002020010020000000202B
:100CC0008C000020FEE7FEE77047704710B500F08B
:100CD00097F810BD7047F0B5002216E00B699C46EE
:100CE000C4682B006B435E00F618F743B4436646B6
:100CF0005E433443C4604C68022C26D04D680468BF
:100D00003C406B432343036001320C682300D34013
:100D10003BD00123934025001D401C42F4D04B687A
:100D2000013B012BDAD88F6883682C006C43660086
:100D30003619B3437C43234383600E68CC68436811
:100D4000B343744323434360C8E7FF2D0DD84C6978
:100D5000A446066A1C006C436C4325012D1BAE4360
:100D600065466C4334430462C8E74C69A446466A4E
:100D70002D0A2C006C436C436C4325012D1BAE43A4
:100D800065466C4334434462B8E70020F0BD000080
:100D900010B504000F4B1978FA208000FFF7BEF958
:100DA00001000D4B1868FFF7B9F900F045FC002869
:100DB0000DD1032C01D901200AE0013000222100CD
:100DC000404200F029FC054B1C60002000E001209F
:100DD00010BDC0460C0000200800002010000020BC
:100DE00010B5064A136810210B4313600320FFF768
:100DF000CFFF01F097F9002010BDC046002002404F
:100E0000034A1168034B1B785B1813607047C04698
:100E1000A80100200C000020014B18687047C04654
:100E2000A801002010B503000079002850D01A68EE
:100E3000002A57D05879012818D0022820D000283D
:100E40000BD001209A79002A4BD0022A2CD0032AF9
:100E500034D0012A1ED0012043E023494C6894433A
:100E60004C601A680C6822430A60EBE71E49086868
:100E7000904308601A68486802434A600020E1E72E
:100E80001949086802430A601A68486802434A60C0
:100E90000020D7E71C68144AD168A143D1601B68C1
:100EA00091680B4393601CE01C680F4A9168A14352
:100EB00091601B68D1680B43D36012E019680A4A3D
:100EC0009468214391601B68D1680B43D36008E0AC
:100ED0001C68054A1168A1431160196853688B4367
:100EE000536010BD0020FCE70004014070B5040011
:100EF000026893685B0725D593685B0706D59368FE
:100F00009B0703D4936810210B439360FFF784FF82
:100F1000050023689B685B0712D5FFF77DFF401B28
:100F20000228F6D923689B685B07F2D5A36B1022D1
:100F30001343A363E36B0F3A1343E363012002E01F
:100F4000002000E0002070BD70B5040002689168C8
:100F500003230B40012B01D0002070BD1368DB0779
:100F600002D4D3681B0431D5916805230B40012BB3
:100F700009D0A36B10221343A363E36B0F3A13430F
:100F8000E3630120E9E7936802210B439360236840
:100F900003221A60FFF740FF050023689B68DB0708
:100FA00012D5FFF739FF401B0228F6D923689B684A
:100FB000DB07F2D5A36B10221343A363E36B0F3A55
:100FC0001343E3630120C8E70020C6E70020C4E71D
:100FD00030B583B0040000230193036899680322AD
:100FE0000A40012A14D09968224A114218D19A68FD
:100FF00001210A439A60204B18682049FFF78EF8B8
:101000000190019B002B15D0019B013B0193F8E758
:101010001A68D2072BD4DA681204E4D5002024E041
:10102000A36B10221343A363E36B0F3A1343E363F1
:1010300001201AE0FFF7F0FE050023681B68DB07BC
:1010400012D4FFF7E9FE401B0228F6D923681B687B
:10105000DB07F2D4A36B10221343A363E36B0F3AB5
:101060001343E363012000E0002003B030BD002003
:10107000FBE7C046170000800800002040420F0038
:1010800070B5041E00D1B4E0836B002B00D180E06A
:10109000A36BDB0600D5A6E023689A68042108004C
:1010A0001040114200D09EE0A26B53490A40063125
:1010B000FF310A43A263996803220A40012A6ED0D5
:1010C000DA6818218A43A1680A43DA602268136942
:1010D0009B009B0861680B4313612268D3684749F2
:1010E0000B40D360237E9B03627ED2031343A17E19
:1010F0004A031343A26A012A58D0802252011343A3
:10110000E26813432269022A52D003432422A25CDC
:1011100052001343E27E012A4CD0E269C221FF3122
:101120008A4202D0216A0A4313432168CA681A43DB
:10113000CA60E26A802149058A420DD0012A0BD09B
:10114000022A09D0032A07D0042A05D0052A03D091
:10115000062A01D0072A0AD1206841690722914353
:10116000416120684169E56A2A400A434261226878
:10117000D26823490A409A422BD0A36B1222934390
:10118000023A1343A363E36B0F3A1343E363012073
:101190002EE0C3633422835400F0DCFF78E71A6842
:1011A000D2079AD4DA68120497D489E70200A6E736
:1011B0000420AAE7002903D1802252021343ACE79E
:1011C000A26B20210A43A263E26B1F390A43E26348
:1011D000A3E70023E363A36B03229343023A134381
:1011E000A363002004E0A36B10221343A363012038
:1011F00070BD0120FCE7C046FDFEFFFF1902FEFFA7
:10120000E7FF3F8310B5040003689B685B0723D4A6
:101210003423C35C012B21D034230122C254437EEA
:10122000012B14D10020A26B0D4B1A4080235B00D0
:101230001343A3630023E3633422A3542368183ABF
:101240001A602268936804210B43936010BDFFF776
:10125000BFFE0028FAD1E6E70220F7E70220F5E713
:10126000FEF0FFFF10B504003423C35C012B17D040
:1012700034230122C254FFF739FE002803D034235F
:101280000022E25410BD2000FFF75EFE0028F6D1D8
:10129000A36B044A13400432FF321343A363EEE707
:1012A0000220EFE7FEFEFFFFF8B504000E004769DD
:1012B000082F04D00368DB68DB0718D40C27FFF77E
:1012C000ABFD050023681A6817421FD1731CF9D0C3
:1012D000002E15D123681B681F42F3D1A36B042293
:1012E0001343A36334230022E254032032E0836BD0
:1012F00020221343836334230022C254012029E0B7
:10130000FFF78AFD401BB042DCD9E3E7A16B8022E6
:1013100092000A43A263D968C0221201114213D17C
:10132000A27E002A10D11A6812070DD59A685207BA
:1013300011D45A680C218A435A60A36B0B4A13409C
:101340000432FF321343A363207E00280CD12368AC
:101350000C221A60F8BDA36B20221343A363E36B36
:101360001F3A1343E363EFE70020F3E7FEFEFFFFBE
:101370000368186C704770477047704770B5040079
:1013800003681D685E686A0701D5720703D42A07DF
:1013900027D5320725D5A26BD20604D4A16B8022B3
:1013A00092000A43A263D968C0221201114212D1ED
:1013B000A27E002A0FD12A070DD59A6852072DD494
:1013C0005A680C218A435A60A36B1F4A13400432A7
:1013D000FF321343A3632000FFF7CDFF23680C22E5
:1013E0001A602B0601D5330621D4ED0615D5F60675
:1013F00013D5A36A012B03D02368DB68DB0709D56B
:10140000E36B02221343E36323680E321A60200069
:10141000FFF7B3FF236810221A6070BDA36B202270
:101420001343A363E36B1F3A1343E363D3E7A26B56
:1014300080235B021343A3632000FFF79DFF236813
:1014400080221A60D1E7C046FEFEFFFF30B583B0B0
:101450000400002301933433C35C012B00D17FE0EF
:1014600034230122C254026893685B076AD4486837
:101470003C4B98424BD0936A0D680120A84003432F
:101480009362E36A80225205934213D0013B062BFC
:1014900010D988682268556907232B40984209D0E3
:1014A0005069072398435061206842698D682B403A
:1014B000134343610B681A00103A022A4CD82A4A97
:1014C0001268102B0ED0112B09D080235B0413431C
:1014D000254A13600B68102B07D0002037E08023CB
:1014E000DB03F4E780231B04F1E7204B1868204955
:1014F000FEF714FE83001B185B00019302E0019BC2
:10150000013B0193019B002BF9D100201FE0936A5E
:101510000D680120A840834393620B681A00103ABB
:10152000022A1BD8104A1268102B09D0112B05D0A3
:10153000104B13400C4A1360002008E00E4BF8E7F4
:101540000E4BF6E7836B2022134383630120342381
:101550000022E25403B030BD0020F8E70020F6E797
:101560000220F7E7011000000827014008000020D2
:1015700040420F00FFFFFFFEFFFFBFFFFFFF7FFFA7
:1015800070B5002811DB8308134DC0339B005C59F4
:1015900003221040C000FC3216008640B44389018B
:1015A0000A40824022435A5170BD0F230340083B3A
:1015B0009B0806339B00094A944663445C680322F7
:1015C0001040C000FC3215008540AC4389010A4040
:1015D000824022435A60E7E700E100E000ED00E0CE
:1015E000013880235B0498420FD2094A50600948B1
:1015F000036A1B021B0AC02109060B430362002376
:10160000936007331360002070470120FCE7C04659
:1016100010E000E000ED00E010B5FFF7B1FF10BDF5
:10162000002805DB1F22024001239340014A13607A
:101630007047C04600E100E010B5FFF7D1FF10BDD4
:10164000F0B583B0002356E086685F000324BC40F9
:10165000A643CC68BC4034438460446894434E68DD
:101660003609012232409A402243426053E0DE08AC
:101670000836B600375805321A4092000F249440BD
:10168000A7430C69944022003A43325056E00326A7
:1016900000E00026A64034003C4302329200444E53
:1016A0009451444A9768EA433E00AE434C68E402D2
:1016B00001D53E002E433F4CA660E7683E00164031
:1016C0004C68A40201D53E002E433A4CE6606768A0
:1016D0003E0016404C68A40301D53E002E43354C15
:1016E0006660266832404C68E40301D52A00324324
:1016F000304C226001330C682200DA4056D00122BF
:101700009A40250015401442F4D04E68032434401A
:10171000013C012C98D94C6803222240032A08D0AE
:10172000C4685E000322B24094438A68B2402243F8
:10173000C2604C6803222240022A98D004685E00EE
:1017400003221700B740BC434F683A40B2402243DF
:1017500002604C68C02292021442CBD0164CA6699B
:1017600001221643A661A46922400192019A9A08B7
:10177000941CA4000E4EA75903241C40A4000F265D
:10178000A640B7439026F605B04282D00B4EB04239
:1017900008D00B4EB04207D00A4EB04200D176E7D7
:1017A000052677E7012675E7022673E703B0F0BD4B
:1017B0000000014000040140001002400004004805
:1017C00000080048000C0048426913000B401B044D
:1017D00091430B43836170477047000010B5054B80
:1017E0005B69184200D110BD024B5861FFF7F4FF4E
:1017F000F9E7C0460004014030B5036A0122934373
:101800000362056A426883697324A3430C681C431E
:1018100002239D438B682B43154DA84208D0154DDC
:10182000A84205D0144DA84202D0144DA84206D1BA
:101830000825AB431D00CB682B430425AB430C4D5F
:10184000A84208D00B4DA84205D00B4DA84202D0AB
:101850000A4DA84205D10A4D2A404D6915438A69AF
:101860002A43426084614A684263036230BDC046D5
:10187000002C01400040014000440140004801406C
:10188000FFFCFFFF30B5036A184A13400362046A85
:101890004268C3697325AB430D681D43144B1C405C
:1018A0008B681B022343134CA04209D0124CA04268
:1018B0000DD0124CA0420AD0114CA0420FD106E02C
:1018C000104C1C40CB681B0223430F4C23400F4C91
:1018D00022404C69240114438A6912012243426068
:1018E000C5614A68C263036230BDC046FFFEFFFFA8
:1018F000FFFDFFFF002C014000400140004401407B
:1019000000480140FFF7FFFFFFFBFFFFFFCFFFFF96
:1019100030B5036A134A13400362046A4368C2691C
:10192000114D2A400D682D021543104A14408A6853
:10193000120322430E4CA04208D00E4CA04205D008
:101940000D4CA04202D00D4CA04204D10C4C1C40C6
:101950004B699B0123434360C5614B68036402628A
:1019600030BDC046FFEFFFFFFF8CFFFFFFDFFFFF33
:10197000002C01400040014000440140004801406B
:10198000FFBFFFFF30B5036A046A0125AC43046260
:101990008469EF35AC43120122430A24A3430B436D
:1019A0008261036230BD000030B5036A1024A34396
:1019B00003628469036A054D2C4012032243A0246C
:1019C000A343090119438261016230BDFF0FFFFF8C
:1019D0008368702293430B43693A134383607047D3
:1019E0003D23C35C012B26D13C330222C254026842
:1019F000D36801210B43D3600368114A93420FD08F
:101A00008022D20593420BD00E4A934208D00E4A50
:101A1000934205D01A6801210A431A6000200BE0A6
:101A2000996807220A40062A07D01A6801210A434A
:101A30001A60002000E0012070470020FCE7C0464B
:101A4000002C0140000400400040014070477047F6
:101A5000704770477047704710B5040002681369FB
:101A60009B070FD5D3689B070CD503235B421361FB
:101A70000433037703689B699B0763D0FFF7E9FF93
:101A800000232377226813695B0712D5D3685B07AD
:101A90000FD505235B4213610733237723689A69C7
:101AA000C0239B001A4253D02000FFF7D2FF00232F
:101AB0002377226813691B0710D5D3681B070DD540
:101AC00009235B4213610D3323772368DB699B078E
:101AD00045D02000FFF7BDFF00232377226813695C
:101AE000DB0612D5D368DB060FD511235B421361E9
:101AF000193323772368DA69C0239B001A4235D053
:101B00002000FFF7A6FF0023237722681369DB0775
:101B100002D5D368DB0730D4226813691B0602D5CF
:101B2000D3681B0630D4226813695B0602D5D368DC
:101B30005B0630D4226813699B0602D5D3689B06E6
:101B400030D410BDFFF784FF2000FFF783FF97E735
:101B50002000FFF77DFF2000FFF77CFFA7E72000B4
:101B6000FFF776FF2000FFF775FFB5E72000FFF7CE
:101B70006FFF2000FFF76EFFC5E702235B42136192
:101B80002000FFF764FFC7E781235B421361200059
:101B900000F0C7FAC7E741235B4213612000FFF75B
:101BA0005AFFC7E721235B421361200000F0B8FA17
:101BB000C7E700000368214A904206D08022D20580
:101BC000904202D01E4A904203D1702293434A6849
:101BD00013431A4A904212D08022D20590420ED06E
:101BE000174A90420BD0174A904208D0164A9042AA
:101BF00005D0164A904202D0154A904203D1154AA8
:101C00001A40CB681343802293434A69134303600D
:101C10008B68C3620B688362084B984208D00A4BFA
:101C2000984205D0094B984202D0094B984201D105
:101C30000B690363012343617047C046002C0140D8
:101C400000040040002000400040014000440140EA
:101C500000480140FFFCFFFF70B5041E26D03D2365
:101C6000C35C002B1CD03D2502236355210001C914
:101C7000FFF7A0FF01234622A354083AA3540132E0
:101C8000A3540132A3540132A3540132A3540132AC
:101C9000A3540132A3540132A3546355002070BDF4
:101CA0003C330022C25400F085FADCE70120F6E75D
:101CB00070B5041E26D03D23C35C002B1CD03D25EF
:101CC00002236355210001C9FFF774FF0123462257
:101CD000A354083AA3540132A3540132A35401324D
:101CE000A3540132A3540132A3540132A35401324C
:101CF000A3546355002070BD3C330022C254FFF74B
:101D0000A5FEDCE70120F6E770B5036A10229343D5
:101D10000362026A44688369164D2B400D682D02E8
:101D20001D4320239A438B681B011343124A9042A0
:101D300009D0124A90420ED0114A90420BD0114A5B
:101D4000904210D107E0802293431E00CB681B0114
:101D50003343403A93430C4A14404A699200224369
:101D60008C69A4001443446085614A6882630362FD
:101D700070BDC046FF8CFFFF002C014000400140B9
:101D80000044014000480140FFF3FFFF70B504002C
:101D90000D003C23C35C012B00D16AE03C230121F0
:101DA000C154082A50D01CD8002A38D0042A16D191
:101DB00000682900FFF7A8FF2268916980231B01B2
:101DC0000B439361226893692B490B40936121680F
:101DD0008B692A69120213438B6100201BE0080003
:101DE00019E00C2A16D100682900FFF791FD22683E
:101DF000D16980231B010B43D3612268D3691E493B
:101E00000B40D3612168CB692A6912021343CB616D
:101E1000002000E001203C230022E25470BD006855
:101E20002900FFF7E9FC2268936908210B439361BD
:101E30002268936904398B43936122689369296905
:101E40000B4393610020E6E700682900FFF71AFDC5
:101E50002268D36908210B43D3612268D36904390E
:101E60008B43D3612268D36929690B43D361002076
:101E7000D1E70220D2E7C046FFFBFFFF30B5846800
:101E8000034D2C401B0213430B432343836030BD9F
:101E9000FF00FFFF10B5040008003C23E35C012BAA
:101EA00000D177E03C230122E25401330132E254B5
:101EB0002268936838490B409360016860294FD0CD
:101EC00029D8402957D00CD9502922D14168C2685D
:101ED0002068FFF757FD20685021FFF779FD0020AB
:101EE00005E020290ED009D930290BD001203D234F
:101EF0000122E254013B0022E25410BD002901D02E
:101F0000102904D12068FFF763FD0020EFE70120CE
:101F1000EDE70120EBE780225201914236D080228A
:101F2000920191420DD181684268C3682068FFF731
:101F3000A5FF226891688023DB010B43936000209A
:101F4000D5E7702924D181684268C3682068FFF70B
:101F500095FF2268936877210B4393600020C6E7C2
:101F60004168C2682068FFF71FFD20686021FFF705
:101F70002FFD0020BBE74168C2682068FFF702FD23
:101F800020684021FFF724FD0020B0E70020AEE7E5
:101F90000120ACE70220B0E78800FFFF10B51F2347
:101FA000194001248C40036AA3430362036A8A40F8
:101FB0001343036210BD000010B50400002936D1A0
:101FC0003E23C35C013B5A1E9341DBB2002B62D11E
:101FD000002945D13E330222E25420680122FFF756
:101FE000DDFF23682E4A934208D02E4A934205D043
:101FF0002D4A934202D02D4A934204D1596C80223B
:1020000012020A435A642368254A934238D0802238
:10201000D205934234D0264A934231D0214A93428A
:102020002ED01A6801210A431A60002034E00429E6
:1020300008D008290DD04123C35C013B5A1E9341AF
:10204000DBB2C3E73F23C35C013B5A1E9341DBB2C3
:10205000BCE74023C35C013B5A1E9341DBB2B5E7AA
:10206000042905D0082907D041230222E254B4E70D
:102070003F230222E254B0E740230222E254ACE7BD
:10208000996807220A40062A07D01A6801210A43E4
:102090001A60002000E0012010BD0020FCE7C046CF
:1020A000002C014000400140004401400048014034
:1020B0000004004030B53C23C35C012B28D03C23F6
:1020C0000122C25401330132C25403685C689D6826
:1020D0006E3294430A6822435A6003680D4A934261
:1020E00009D08022D205934205D00B4A934202D0F8
:1020F0000A4A934204D1802295434A682A439A604F
:102100003D230122C254013B0022C254002030BDB5
:102110000220FCE7002C0140000400400040014088
:102120007047704782B00A4B996901221143996147
:1021300099690A400092009ADA69802149050A43A8
:10214000DA61DB690B400193019B02B07047C04626
:102150000010024010B588B004001422002103A82A
:1021600000F0E8F82268114B9A4201D008B010BD87
:102170000F4B9A69802189000A439A619A690A4043
:102180000192019A5A69802189020A435A615B6966
:102190000B400293029B402303933D3B049390200A
:1021A00003A9C005FFF74CFAE0E7C0460024014050
:1021B0000010024084B00368144A934207D0144AC6
:1021C00093420ED0134A934215D004B07047124A7E
:1021D000D16902231943D161D26913400193019B54
:1021E000F3E70D4AD16910231943D161D269134035
:1021F0000293029BE9E7084B9A69802189020A430E
:102200009A619B690B400393039BDEE70004004047
:1022100000100040004401400010024010B586B09C
:1022200004001422002101A800F084F822680C4B5D
:102230009A4201D006B010BD0A4B5A698021C902EA
:102240000A435A615B690B400093009B0123019391
:1022500002220292059301A90348FFF7F1F9E9E789
:10226000000400400010024000040048014B1860C8
:102270007047C046080000200D488546FEF72AFD3D
:102280000C480D490D4A002302E0D458C4500433D1
:10229000C4188C42F9D30A4A0A4C002301E01360A7
:1022A0000432A242FBD300F04DF8FEF7CDFCFEE76E
:1022B000002000200000002064000020B82C00084E
:1022C00064000020F8020020FEE700000CB430B5E6
:1022D000174B0C001D689DB0002908DA8B230120E4
:1022E0002B6040421DB030BC08BC02B018478223AE
:1022F0006A469B009382002302900690994200D088
:102300004B1E0493079301236A465B42D382280045
:1023100021AB209A02A9019300F096F9431C01DA3F
:102320008B232B60002CDDD00022029B1A70D9E792
:102330001400002003008218934200D170471970E6
:102340000133F9E770B500260C4C0D4D641BA41049
:10235000A64209D1002600F075FC0A4C0A4D641B08
:10236000A410A64205D170BDB300EB5898470136C2
:10237000EEE7B300EB5898470136F2E7B02C0008BF
:10238000B02C0008B42C0008B02C0008704770472F
:1023900070B505000C1E10D0043C2368002B00DA39
:1023A000E418280000F0E0F81D4A1368002B05D15E
:1023B00063601460280000F0DFF870BDA34208D904
:1023C000206821188B42F3D119685B6809182160D5
:1023D000EEE71A005B68002B01D0A342F9D911681F
:1023E0005018A0420BD12068091850181160834280
:1023F000E0D118685B68411811605360DAE7A042C9
:1024000002D90C232B60D5E7206821188B4203D119
:1024100019685B680918216063605460CAE7C046A8
:10242000F002002070B50F4E0D0031680400002945
:1024300002D100F099FB30602900200000F094FBED
:10244000431C03D101256D42280070BD0323C51C28
:102450009D43A842F8D0291A200000F085FB0130E6
:10246000F2D1EFE7EC020020F7B50322CB1C934337
:10247000083305001F000C2B34D20C27B94233D887
:10248000280000F071F8374E33681C00002C2FD163
:1024900039002800FFF7C6FF0400431C5FD13468F1
:1024A0000094009B002B4AD1002C52D023682800B6
:1024B000E3180099019300F057FB019B834248D138
:1024C00023682800FF1A3900FFF7ACFF013040D025
:1024D0002368DB19236033685A68002A33D1009BD4
:1024E000336019E0002BC9DA0C232B600020FEBDFD
:1024F0002168C91B20D40B290AD9E2192760A342FD
:1025000004D1326063681160536005E05A60F9E7F6
:102510006268A3420ED13260280000F02DF820003E
:1025200007220B30231D9043C21A9842DFD01B1A9A
:10253000A350DCE75A60EFE723006468A6E7009C3D
:1025400063680093ADE71A005B68A342FBD10023E8
:10255000DAE70C2328002B6000F00EF8C6E70760CE
:10256000DAE7C046F002002010B50248FFF70EFF80
:1025700010BDC046E802002010B50248FFF707FF73
:1025800010BDC046E8020020F0B58E6885B01F007F
:102590000C000B6802900392BE4230D80C21625EA0
:1025A0009021C9000A4228D0032021695B1A0193B7
:1025B000636943430198DD0FED187B1C1B186D10F8
:1025C000AB4200D91D00520528D529000298FFF71B
:1025D0004BFF061E2CD0019A216900F0E2FAA28975
:1025E000184B1A4080231343A381019B2661F618E0
:1025F00026603E006561ED1AA560BE4200D93E002E
:1026000032000399206800F09BFA0020A3689B1B0E
:10261000A36023689B19236005B0F0BD2A000298CF
:1026200000F0C8FA061EE0D121690298FFF7B0FE5B
:102630000C230120029A40421360A28934331343D1
:10264000A381E9E77FFBFFFFF0B5A1B003901D0078
:102650008B890F0016001B0611D50B69002B0ED1BC
:102660004021FFF701FF38603861002805D10C23B5
:10267000039A136001204042CFE040237B61002396
:1026800008AC6361203363761033A3760795350079
:102690002B78002B01D0252B48D1AB1B0593B542DD
:1026A0000BD0320039000398FFF76EFF013000D1E4
:1026B000AEE06369059A9B1863612B78002B00D10B
:1026C000A6E0012200235242626004A9543252184B
:1026D0006E1C2360E360A3601370A365544B052256
:1026E00018003178059300F051FA751C00281FD1AD
:1026F0002268D30604D5532304A95B18202119703E
:10270000130704D5532304A95B182B2119703378C0
:102710002A2B16D0350000210A20E3682A786E1C87
:10272000303A092A50D9002911D117E00135AFE715
:10273000059B2268C01A0123834013432E002360A7
:10274000CCE7079B191D1B680791002B01DB0B933E
:1027500004E05B42E3600223134323602B782E2BBB
:102760000CD16B782A2B34D1079B02351A1D1B68BC
:102770000792002B01DA01235B4209932D4E0322BD
:102780003000297800F002FA002806D04023801B90
:1027900083402268013513432360297806222648A6
:1027A0006E1C217600F0F2F9002838D0234B002B64
:1027B00022D10722079B07339343083307936369AA
:1027C000049A9B18636162E74343350001219B181B
:1027D000A4E700230A201900013563602A786E1CE3
:1027E000303A092A03D9002BC8D00991C6E74143E2
:1027F000350001238918F1E707AA009221003A0069
:102800000F4B039800E000BF0490049B0133D6D126
:10281000BB890D985B0600D52CE721B0F0BD07AA57
:10282000009221003A00064B039800F07BF8EBE79A
:102830007B2C0008812C0008852C0008000000007B
:1028400089250008F7B5160001938A680B690C000A
:102850000090934200DA1300220033604332127872
:10286000002A01D00133336023689B0602D5336808
:10287000023333602268062315001D401A4227D018
:10288000230043331B785A1E93412268920630D4AA
:10289000220001990098089D4332A847013025D0B5
:1028A0000622236800251340042B05D13368E56810
:1028B000ED1AEB43DB171D40A3682269934201DD4B
:1028C0009B1AED180026B54220D1002010E00135FA
:1028D000E36832689B1AAB42D2DD220001230199E2
:1028E0000098089F1932B8470130F0D101204042CA
:1028F000FEBD3020E1184331087021005A1C4531DB
:102900000978A218433202331170C1E72200012373
:1029100001990098089F1A32B8470130E6D0013675
:10292000D1E70000F0B58BB006920A00433207935E
:10293000059003920A7E0C00109B782A09D8622A1F
:102940000BD8002A00D1BCE07B490491582A00D161
:1029500090E0250042352A7022E0100063381528E7
:10296000F7D8FDF7D1FB16001F00F6FFF6FFF6FFC4
:10297000F6FF1F00F6FFF6FFF6FFF6FFA100360098
:102980008000F6FFF6FFB200F6FF3600F6FFF6FF16
:10299000840025001A684235111D196013682B70D8
:1029A0000123A0E018680968021D0D060BD5066812
:1029B0001A60002E03DA2D23039A764213705E4BC1
:1029C0000A27049318E006681A604906F1D536B262
:1029D000EFE70868196840C9050602D4400600D52B
:1029E000B6B21960544B0A2704936F2A00D1023FF4
:1029F0002300002243331A706368A360002B03DBBB
:102A0000042122688A432260002E02D1039D002BFC
:102A10000CD0039D30003900FDF706FC049B013DFE
:102A20005B5C2B70330006009F42F3D9082F09D15D
:102A30002368DB0706D5626823699A4202DC3023EB
:102A4000013D2B70039B5B1B2361079B21000093BF
:102A50000598069B09AAFFF7F5FE013048D1012031
:102A600040420BB0F0BD202209680A432260782260
:102A700032490491210045310A701968226840C921
:102A8000100602D4500600D5B6B21960D30702D59D
:102A9000202313432360002E01D01027A8E7202213
:102AA000236893432360F8E71A680D68101D49698D
:102AB000186013682E0601D5196002E06D06FBD57B
:102AC00019800023039D2361BFE71A68111D196057
:102AD000156800212800626800F058F8002801D02D
:102AE000401B6060636823610023039A1370ACE7A6
:102AF0002A00236906990598079DA8470130AED0A2
:102B000023689B0715D4099BE0689842A9DA18004E
:102B1000A7E72200012306990598079E1932B047BE
:102B200001309CD00135E368099A9B1AAB42F0DC76
:102B3000E9E70025F7E7C0468C2C00089D2C00082B
:102B400010B5884206D800239A4208D0CC5CC45401
:102B50000133F9E78B189842F5D2013A00D210BD43
:102B60008B5C8354F9E70000002370B5064D040028
:102B700008002B6000F056F8431C03D12B68002B93
:102B800000D0236070BDC046E4020020C9B28218A4
:102B9000904201D10020704703788B42FBD0013076
:102BA000F6E7002310B59A4200D110BDCC5CC454A6
:102BB0000133F8E7F7B506000C001500002905D130
:102BC0001100FFF751FC04002000FEBD002A03D1D4
:102BD000FFF7DEFB0024F7E700F01BF80700854253
:102BE00002D84308AB42EFD329003000FFF73CFC8A
:102BF00001900028EED02A00BD4200D93A00210001
:102C00000198FFF7CEFF21003000FFF7C1FB019CC8
:102C1000DAE70B1F1B68181F002B01DA0B58C018CE
:102C200070470000054A03001168002901D10449DA
:102C300011601068C31813607047C046F40200208A
:102C4000F8020020F8B5C046F8BC08BC9E467047A4
:0C2C5000F8B5C046F8BC08BC9E467047B2
:102C5C00454550524F4D20425954453A0000000012
:102C6C0025750000535049204552524F52210023E4
:102C7C002D302B2000686C4C00656667454647007C
:102C8C003031323334353637383941424344454696
:102C9C00003031323334353637383961626364652C
:042CAC0066000000BE
:042CB000E90000082F
:042CB400C100000853
:102CB800AA55CC33F00F000000127A000100000082
:102CC800040000001800002000000000AC010020F3
:102CD800140200207C020020000000000000000018
:102CE80000000000000000000000000000000000DC
:102CF80000000000000000000000000000000000CC
:102D080000000000000000000000000000000000BB
:042D180000000000B7
:040000050800227954
:00000001FF
